{
  "_format": "hh-sol-artifact-1",
  "contractName": "Vesting",
  "sourceName": "contracts/Vesting.sol",
  "abi": [
    {
      "inputs": [
        {
          "internalType": "uint256",
          "name": "_initialSupply",
          "type": "uint256"
        },
        {
          "internalType": "uint256",
          "name": "_vestingPeriod",
          "type": "uint256"
        },
        {
          "internalType": "uint256",
          "name": "_amountToRelease",
          "type": "uint256"
        },
        {
          "internalType": "uint256",
          "name": "_tokenReleaseInterval",
          "type": "uint256"
        }
      ],
      "stateMutability": "nonpayable",
      "type": "constructor"
    },
    {
      "anonymous": false,
      "inputs": [
        {
          "indexed": true,
          "internalType": "address",
          "name": "owner",
          "type": "address"
        },
        {
          "indexed": true,
          "internalType": "address",
          "name": "spender",
          "type": "address"
        },
        {
          "indexed": false,
          "internalType": "uint256",
          "name": "value",
          "type": "uint256"
        }
      ],
      "name": "Approval",
      "type": "event"
    },
    {
      "anonymous": false,
      "inputs": [
        {
          "indexed": true,
          "internalType": "address",
          "name": "from",
          "type": "address"
        },
        {
          "indexed": true,
          "internalType": "address",
          "name": "to",
          "type": "address"
        },
        {
          "indexed": false,
          "internalType": "uint256",
          "name": "value",
          "type": "uint256"
        }
      ],
      "name": "Transfer",
      "type": "event"
    },
    {
      "inputs": [
        {
          "internalType": "address",
          "name": "_address",
          "type": "address"
        }
      ],
      "name": "addVestedAddress",
      "outputs": [],
      "stateMutability": "nonpayable",
      "type": "function"
    },
    {
      "inputs": [],
      "name": "admin",
      "outputs": [
        {
          "internalType": "address",
          "name": "",
          "type": "address"
        }
      ],
      "stateMutability": "view",
      "type": "function"
    },
    {
      "inputs": [
        {
          "internalType": "address",
          "name": "owner",
          "type": "address"
        },
        {
          "internalType": "address",
          "name": "spender",
          "type": "address"
        }
      ],
      "name": "allowance",
      "outputs": [
        {
          "internalType": "uint256",
          "name": "",
          "type": "uint256"
        }
      ],
      "stateMutability": "view",
      "type": "function"
    },
    {
      "inputs": [],
      "name": "amountToRelease",
      "outputs": [
        {
          "internalType": "uint256",
          "name": "",
          "type": "uint256"
        }
      ],
      "stateMutability": "view",
      "type": "function"
    },
    {
      "inputs": [
        {
          "internalType": "address",
          "name": "spender",
          "type": "address"
        },
        {
          "internalType": "uint256",
          "name": "amount",
          "type": "uint256"
        }
      ],
      "name": "approve",
      "outputs": [
        {
          "internalType": "bool",
          "name": "",
          "type": "bool"
        }
      ],
      "stateMutability": "nonpayable",
      "type": "function"
    },
    {
      "inputs": [
        {
          "internalType": "address",
          "name": "account",
          "type": "address"
        }
      ],
      "name": "balanceOf",
      "outputs": [
        {
          "internalType": "uint256",
          "name": "",
          "type": "uint256"
        }
      ],
      "stateMutability": "view",
      "type": "function"
    },
    {
      "inputs": [],
      "name": "decimals",
      "outputs": [
        {
          "internalType": "uint8",
          "name": "",
          "type": "uint8"
        }
      ],
      "stateMutability": "view",
      "type": "function"
    },
    {
      "inputs": [
        {
          "internalType": "address",
          "name": "spender",
          "type": "address"
        },
        {
          "internalType": "uint256",
          "name": "subtractedValue",
          "type": "uint256"
        }
      ],
      "name": "decreaseAllowance",
      "outputs": [
        {
          "internalType": "bool",
          "name": "",
          "type": "bool"
        }
      ],
      "stateMutability": "nonpayable",
      "type": "function"
    },
    {
      "inputs": [],
      "name": "getVestedAddresses",
      "outputs": [
        {
          "internalType": "address[]",
          "name": "",
          "type": "address[]"
        }
      ],
      "stateMutability": "view",
      "type": "function"
    },
    {
      "inputs": [
        {
          "internalType": "address",
          "name": "spender",
          "type": "address"
        },
        {
          "internalType": "uint256",
          "name": "addedValue",
          "type": "uint256"
        }
      ],
      "name": "increaseAllowance",
      "outputs": [
        {
          "internalType": "bool",
          "name": "",
          "type": "bool"
        }
      ],
      "stateMutability": "nonpayable",
      "type": "function"
    },
    {
      "inputs": [],
      "name": "lastReleaseTimeStamp",
      "outputs": [
        {
          "internalType": "uint256",
          "name": "",
          "type": "uint256"
        }
      ],
      "stateMutability": "view",
      "type": "function"
    },
    {
      "inputs": [],
      "name": "name",
      "outputs": [
        {
          "internalType": "string",
          "name": "",
          "type": "string"
        }
      ],
      "stateMutability": "view",
      "type": "function"
    },
    {
      "inputs": [],
      "name": "sendTokens",
      "outputs": [],
      "stateMutability": "nonpayable",
      "type": "function"
    },
    {
      "inputs": [
        {
          "internalType": "address",
          "name": "_address",
          "type": "address"
        }
      ],
      "name": "setAdmin",
      "outputs": [],
      "stateMutability": "nonpayable",
      "type": "function"
    },
    {
      "inputs": [],
      "name": "symbol",
      "outputs": [
        {
          "internalType": "string",
          "name": "",
          "type": "string"
        }
      ],
      "stateMutability": "view",
      "type": "function"
    },
    {
      "inputs": [],
      "name": "tokenDeployer",
      "outputs": [
        {
          "internalType": "address",
          "name": "",
          "type": "address"
        }
      ],
      "stateMutability": "view",
      "type": "function"
    },
    {
      "inputs": [],
      "name": "tokenReleaseInterval",
      "outputs": [
        {
          "internalType": "uint256",
          "name": "",
          "type": "uint256"
        }
      ],
      "stateMutability": "view",
      "type": "function"
    },
    {
      "inputs": [],
      "name": "totalSupply",
      "outputs": [
        {
          "internalType": "uint256",
          "name": "",
          "type": "uint256"
        }
      ],
      "stateMutability": "view",
      "type": "function"
    },
    {
      "inputs": [
        {
          "internalType": "address",
          "name": "to",
          "type": "address"
        },
        {
          "internalType": "uint256",
          "name": "amount",
          "type": "uint256"
        }
      ],
      "name": "transfer",
      "outputs": [
        {
          "internalType": "bool",
          "name": "",
          "type": "bool"
        }
      ],
      "stateMutability": "nonpayable",
      "type": "function"
    },
    {
      "inputs": [
        {
          "internalType": "address",
          "name": "from",
          "type": "address"
        },
        {
          "internalType": "address",
          "name": "to",
          "type": "address"
        },
        {
          "internalType": "uint256",
          "name": "amount",
          "type": "uint256"
        }
      ],
      "name": "transferFrom",
      "outputs": [
        {
          "internalType": "bool",
          "name": "",
          "type": "bool"
        }
      ],
      "stateMutability": "nonpayable",
      "type": "function"
    },
    {
      "inputs": [
        {
          "internalType": "uint256",
          "name": "_amountToRelease",
          "type": "uint256"
        }
      ],
      "name": "updateAmount",
      "outputs": [],
      "stateMutability": "nonpayable",
      "type": "function"
    },
    {
      "inputs": [
        {
          "internalType": "uint256",
          "name": "_minutes",
          "type": "uint256"
        }
      ],
      "name": "updateReleaseInterval",
      "outputs": [],
      "stateMutability": "nonpayable",
      "type": "function"
    },
    {
      "inputs": [],
      "name": "vestingPeriod",
      "outputs": [
        {
          "internalType": "uint256",
          "name": "",
          "type": "uint256"
        }
      ],
      "stateMutability": "view",
      "type": "function"
    }
  ],
  "bytecode": "0x60806040523480156200001157600080fd5b506040516200287838038062002878833981810160405281019062000037919062000436565b6040518060400160405280600381526020017f58595a00000000000000000000000000000000000000000000000000000000008152506040518060400160405280600381526020017f58595a00000000000000000000000000000000000000000000000000000000008152508160039080519060200190620000bb92919062000346565b508060049080519060200190620000d492919062000346565b5050506200011330620000ec620001ba60201b60201c565b600a620000fa919062000638565b8662000107919062000689565b620001c360201b60201c565b33600660006101000a81548173ffffffffffffffffffffffffffffffffffffffff021916908373ffffffffffffffffffffffffffffffffffffffff160217905550620151808362000165919062000689565b42620001729190620006ea565b60078190555042600a81905550670de0b6b3a76400008262000195919062000689565b600b81905550603c81620001aa919062000689565b600981905550505050506200085d565b60006012905090565b600073ffffffffffffffffffffffffffffffffffffffff168273ffffffffffffffffffffffffffffffffffffffff16141562000236576040517f08c379a00000000000000000000000000000000000000000000000000000000081526004016200022d90620007a8565b60405180910390fd5b6200024a600083836200033c60201b60201c565b80600260008282546200025e9190620006ea565b92505081905550806000808473ffffffffffffffffffffffffffffffffffffffff1673ffffffffffffffffffffffffffffffffffffffff1681526020019081526020016000206000828254620002b59190620006ea565b925050819055508173ffffffffffffffffffffffffffffffffffffffff16600073ffffffffffffffffffffffffffffffffffffffff167fddf252ad1be2c89b69c2b068fc378daa952ba7f163c4a11628f55a4df523b3ef836040516200031c9190620007db565b60405180910390a362000338600083836200034160201b60201c565b5050565b505050565b505050565b828054620003549062000827565b90600052602060002090601f016020900481019282620003785760008555620003c4565b82601f106200039357805160ff1916838001178555620003c4565b82800160010185558215620003c4579182015b82811115620003c3578251825591602001919060010190620003a6565b5b509050620003d39190620003d7565b5090565b5b80821115620003f2576000816000905550600101620003d8565b5090565b600080fd5b6000819050919050565b6200041081620003fb565b81146200041c57600080fd5b50565b600081519050620004308162000405565b92915050565b60008060008060808587031215620004535762000452620003f6565b5b600062000463878288016200041f565b945050602062000476878288016200041f565b935050604062000489878288016200041f565b92505060606200049c878288016200041f565b91505092959194509250565b7f4e487b7100000000000000000000000000000000000000000000000000000000600052601160045260246000fd5b60008160011c9050919050565b6000808291508390505b600185111562000536578086048111156200050e576200050d620004a8565b5b60018516156200051e5780820291505b80810290506200052e85620004d7565b9450620004ee565b94509492505050565b60008262000551576001905062000624565b8162000561576000905062000624565b81600181146200057a57600281146200058557620005bb565b600191505062000624565b60ff8411156200059a5762000599620004a8565b5b8360020a915084821115620005b457620005b3620004a8565b5b5062000624565b5060208310610133831016604e8410600b8410161715620005f55782820a905083811115620005ef57620005ee620004a8565b5b62000624565b620006048484846001620004e4565b925090508184048111156200061e576200061d620004a8565b5b81810290505b9392505050565b600060ff82169050919050565b60006200064582620003fb565b915062000652836200062b565b9250620006817fffffffffffffffffffffffffffffffffffffffffffffffffffffffffffffffff84846200053f565b905092915050565b60006200069682620003fb565b9150620006a383620003fb565b9250817fffffffffffffffffffffffffffffffffffffffffffffffffffffffffffffffff0483118215151615620006df57620006de620004a8565b5b828202905092915050565b6000620006f782620003fb565b91506200070483620003fb565b9250827fffffffffffffffffffffffffffffffffffffffffffffffffffffffffffffffff038211156200073c576200073b620004a8565b5b828201905092915050565b600082825260208201905092915050565b7f45524332303a206d696e7420746f20746865207a65726f206164647265737300600082015250565b600062000790601f8362000747565b91506200079d8262000758565b602082019050919050565b60006020820190508181036000830152620007c38162000781565b9050919050565b620007d581620003fb565b82525050565b6000602082019050620007f26000830184620007ca565b92915050565b7f4e487b7100000000000000000000000000000000000000000000000000000000600052602260045260246000fd5b600060028204905060018216806200084057607f821691505b60208210811415620008575762000856620007f8565b5b50919050565b61200b806200086d6000396000f3fe608060405234801561001057600080fd5b506004361061014d5760003560e01c806370a08231116100c35780639941e7911161007c5780639941e79114610390578063a457c2d7146103ae578063a9059cbb146103de578063dd62ed3e1461040e578063e47112bd1461043e578063f851a440146104485761014d565b806370a08231146102ce5780637313ee5a146102fe5780637a9ac6a31461031c578063880f08631461033857806395d89b4114610354578063990e3d2a146103725761014d565b80632a2dae0a116101155780632a2dae0a1461020c578063313ce5671461022a57806334d6093d1461024857806339509351146102645780636ea9231414610294578063704b6c02146102b25761014d565b806302f88e071461015257806306fdde0314610170578063095ea7b31461018e57806318160ddd146101be57806323b872dd146101dc575b600080fd5b61015a610466565b60405161016791906113c6565b60405180910390f35b61017861046c565b604051610185919061147a565b60405180910390f35b6101a860048036038101906101a3919061152b565b6104fe565b6040516101b59190611586565b60405180910390f35b6101c6610521565b6040516101d391906113c6565b60405180910390f35b6101f660048036038101906101f191906115a1565b61052b565b6040516102039190611586565b60405180910390f35b61021461055a565b6040516102219190611603565b60405180910390f35b610232610580565b60405161023f919061163a565b60405180910390f35b610262600480360381019061025d9190611655565b610589565b005b61027e6004803603810190610279919061152b565b61068e565b60405161028b9190611586565b60405180910390f35b61029c6106c5565b6040516102a991906113c6565b60405180910390f35b6102cc60048036038101906102c79190611682565b6106cb565b005b6102e860048036038101906102e39190611682565b6107f7565b6040516102f591906113c6565b60405180910390f35b61030661083f565b60405161031391906113c6565b60405180910390f35b61033660048036038101906103319190611655565b610845565b005b610352600480360381019061034d9190611682565b610943565b005b61035c610b49565b604051610369919061147a565b60405180910390f35b61037a610bdb565b604051610387919061176d565b60405180910390f35b610398610c69565b6040516103a591906113c6565b60405180910390f35b6103c860048036038101906103c3919061152b565b610c6f565b6040516103d59190611586565b60405180910390f35b6103f860048036038101906103f3919061152b565b610ce6565b6040516104059190611586565b60405180910390f35b6104286004803603810190610423919061178f565b610d09565b60405161043591906113c6565b60405180910390f35b610446610d90565b005b610450610e9d565b60405161045d9190611603565b60405180910390f35b600a5481565b60606003805461047b906117fe565b80601f01602080910402602001604051908101604052809291908181526020018280546104a7906117fe565b80156104f45780601f106104c9576101008083540402835291602001916104f4565b820191906000526020600020905b8154815290600101906020018083116104d757829003601f168201915b5050505050905090565b600080610509610ec3565b9050610516818585610ecb565b600191505092915050565b6000600254905090565b600080610536610ec3565b9050610543858285611096565b61054e858585611122565b60019150509392505050565b600660009054906101000a900473ffffffffffffffffffffffffffffffffffffffff1681565b60006012905090565b600560009054906101000a900473ffffffffffffffffffffffffffffffffffffffff1673ffffffffffffffffffffffffffffffffffffffff163373ffffffffffffffffffffffffffffffffffffffff1614806106325750600660009054906101000a900473ffffffffffffffffffffffffffffffffffffffff1673ffffffffffffffffffffffffffffffffffffffff163373ffffffffffffffffffffffffffffffffffffffff16145b610671576040517f08c379a00000000000000000000000000000000000000000000000000000000081526004016106689061187c565b60405180910390fd5b670de0b6b3a76400008161068591906118cb565b600b8190555050565b600080610699610ec3565b90506106ba8185856106ab8589610d09565b6106b59190611925565b610ecb565b600191505092915050565b600b5481565b600560009054906101000a900473ffffffffffffffffffffffffffffffffffffffff1673ffffffffffffffffffffffffffffffffffffffff163373ffffffffffffffffffffffffffffffffffffffff1614806107745750600660009054906101000a900473ffffffffffffffffffffffffffffffffffffffff1673ffffffffffffffffffffffffffffffffffffffff163373ffffffffffffffffffffffffffffffffffffffff16145b6107b3576040517f08c379a00000000000000000000000000000000000000000000000000000000081526004016107aa9061187c565b60405180910390fd5b80600560006101000a81548173ffffffffffffffffffffffffffffffffffffffff021916908373ffffffffffffffffffffffffffffffffffffffff16021790555050565b60008060008373ffffffffffffffffffffffffffffffffffffffff1673ffffffffffffffffffffffffffffffffffffffff168152602001908152602001600020549050919050565b60075481565b600560009054906101000a900473ffffffffffffffffffffffffffffffffffffffff1673ffffffffffffffffffffffffffffffffffffffff163373ffffffffffffffffffffffffffffffffffffffff1614806108ee5750600660009054906101000a900473ffffffffffffffffffffffffffffffffffffffff1673ffffffffffffffffffffffffffffffffffffffff163373ffffffffffffffffffffffffffffffffffffffff16145b61092d576040517f08c379a00000000000000000000000000000000000000000000000000000000081526004016109249061187c565b60405180910390fd5b603c8161093a91906118cb565b60098190555050565b600560009054906101000a900473ffffffffffffffffffffffffffffffffffffffff1673ffffffffffffffffffffffffffffffffffffffff163373ffffffffffffffffffffffffffffffffffffffff1614806109ec5750600660009054906101000a900473ffffffffffffffffffffffffffffffffffffffff1673ffffffffffffffffffffffffffffffffffffffff163373ffffffffffffffffffffffffffffffffffffffff16145b610a2b576040517f08c379a0000000000000000000000000000000000000000000000000000000008152600401610a229061187c565b60405180910390fd5b600a60088054905010610a73576040517f08c379a0000000000000000000000000000000000000000000000000000000008152600401610a6a906119ed565b60405180910390fd5b600073ffffffffffffffffffffffffffffffffffffffff168173ffffffffffffffffffffffffffffffffffffffff161415610ae3576040517f08c379a0000000000000000000000000000000000000000000000000000000008152600401610ada90611a59565b60405180910390fd5b6008819080600181540180825580915050600190039060005260206000200160009091909190916101000a81548173ffffffffffffffffffffffffffffffffffffffff021916908373ffffffffffffffffffffffffffffffffffffffff16021790555050565b606060048054610b58906117fe565b80601f0160208091040260200160405190810160405280929190818152602001828054610b84906117fe565b8015610bd15780601f10610ba657610100808354040283529160200191610bd1565b820191906000526020600020905b815481529060010190602001808311610bb457829003601f168201915b5050505050905090565b60606008805480602002602001604051908101604052809291908181526020018280548015610c5f57602002820191906000526020600020905b8160009054906101000a900473ffffffffffffffffffffffffffffffffffffffff1673ffffffffffffffffffffffffffffffffffffffff1681526020019060010190808311610c15575b5050505050905090565b60095481565b600080610c7a610ec3565b90506000610c888286610d09565b905083811015610ccd576040517f08c379a0000000000000000000000000000000000000000000000000000000008152600401610cc490611aeb565b60405180910390fd5b610cda8286868403610ecb565b60019250505092915050565b600080610cf1610ec3565b9050610cfe818585611122565b600191505092915050565b6000600160008473ffffffffffffffffffffffffffffffffffffffff1673ffffffffffffffffffffffffffffffffffffffff16815260200190815260200160002060008373ffffffffffffffffffffffffffffffffffffffff1673ffffffffffffffffffffffffffffffffffffffff16815260200190815260200160002054905092915050565b6007544210610dd4576040517f08c379a0000000000000000000000000000000000000000000000000000000008152600401610dcb90611b57565b60405180910390fd5b600954600a5442610de59190611b77565b11610e25576040517f08c379a0000000000000000000000000000000000000000000000000000000008152600401610e1c90611bf7565b60405180910390fd5b60005b600880549050811015610e9357610e7f60088281548110610e4c57610e4b611c17565b5b9060005260206000200160009054906101000a900473ffffffffffffffffffffffffffffffffffffffff16600b54610ce6565b508080610e8b90611c46565b915050610e28565b5042600a81905550565b600560009054906101000a900473ffffffffffffffffffffffffffffffffffffffff1681565b600033905090565b600073ffffffffffffffffffffffffffffffffffffffff168373ffffffffffffffffffffffffffffffffffffffff161415610f3b576040517f08c379a0000000000000000000000000000000000000000000000000000000008152600401610f3290611d01565b60405180910390fd5b600073ffffffffffffffffffffffffffffffffffffffff168273ffffffffffffffffffffffffffffffffffffffff161415610fab576040517f08c379a0000000000000000000000000000000000000000000000000000000008152600401610fa290611d93565b60405180910390fd5b80600160008573ffffffffffffffffffffffffffffffffffffffff1673ffffffffffffffffffffffffffffffffffffffff16815260200190815260200160002060008473ffffffffffffffffffffffffffffffffffffffff1673ffffffffffffffffffffffffffffffffffffffff168152602001908152602001600020819055508173ffffffffffffffffffffffffffffffffffffffff168373ffffffffffffffffffffffffffffffffffffffff167f8c5be1e5ebec7d5bd14f71427d1e84f3dd0314c0f7b2291e5b200ac8c7c3b9258360405161108991906113c6565b60405180910390a3505050565b60006110a28484610d09565b90507fffffffffffffffffffffffffffffffffffffffffffffffffffffffffffffffff811461111c578181101561110e576040517f08c379a000000000000000000000000000000000000000000000000000000000815260040161110590611dff565b60405180910390fd5b61111b8484848403610ecb565b5b50505050565b600073ffffffffffffffffffffffffffffffffffffffff168373ffffffffffffffffffffffffffffffffffffffff161415611192576040517f08c379a000000000000000000000000000000000000000000000000000000000815260040161118990611e91565b60405180910390fd5b600073ffffffffffffffffffffffffffffffffffffffff168273ffffffffffffffffffffffffffffffffffffffff161415611202576040517f08c379a00000000000000000000000000000000000000000000000000000000081526004016111f990611f23565b60405180910390fd5b61120d8383836113a3565b60008060008573ffffffffffffffffffffffffffffffffffffffff1673ffffffffffffffffffffffffffffffffffffffff16815260200190815260200160002054905081811015611293576040517f08c379a000000000000000000000000000000000000000000000000000000000815260040161128a90611fb5565b60405180910390fd5b8181036000808673ffffffffffffffffffffffffffffffffffffffff1673ffffffffffffffffffffffffffffffffffffffff16815260200190815260200160002081905550816000808573ffffffffffffffffffffffffffffffffffffffff1673ffffffffffffffffffffffffffffffffffffffff16815260200190815260200160002060008282546113269190611925565b925050819055508273ffffffffffffffffffffffffffffffffffffffff168473ffffffffffffffffffffffffffffffffffffffff167fddf252ad1be2c89b69c2b068fc378daa952ba7f163c4a11628f55a4df523b3ef8460405161138a91906113c6565b60405180910390a361139d8484846113a8565b50505050565b505050565b505050565b6000819050919050565b6113c0816113ad565b82525050565b60006020820190506113db60008301846113b7565b92915050565b600081519050919050565b600082825260208201905092915050565b60005b8381101561141b578082015181840152602081019050611400565b8381111561142a576000848401525b50505050565b6000601f19601f8301169050919050565b600061144c826113e1565b61145681856113ec565b93506114668185602086016113fd565b61146f81611430565b840191505092915050565b600060208201905081810360008301526114948184611441565b905092915050565b600080fd5b600073ffffffffffffffffffffffffffffffffffffffff82169050919050565b60006114cc826114a1565b9050919050565b6114dc816114c1565b81146114e757600080fd5b50565b6000813590506114f9816114d3565b92915050565b611508816113ad565b811461151357600080fd5b50565b600081359050611525816114ff565b92915050565b600080604083850312156115425761154161149c565b5b6000611550858286016114ea565b925050602061156185828601611516565b9150509250929050565b60008115159050919050565b6115808161156b565b82525050565b600060208201905061159b6000830184611577565b92915050565b6000806000606084860312156115ba576115b961149c565b5b60006115c8868287016114ea565b93505060206115d9868287016114ea565b92505060406115ea86828701611516565b9150509250925092565b6115fd816114c1565b82525050565b600060208201905061161860008301846115f4565b92915050565b600060ff82169050919050565b6116348161161e565b82525050565b600060208201905061164f600083018461162b565b92915050565b60006020828403121561166b5761166a61149c565b5b600061167984828501611516565b91505092915050565b6000602082840312156116985761169761149c565b5b60006116a6848285016114ea565b91505092915050565b600081519050919050565b600082825260208201905092915050565b6000819050602082019050919050565b6116e4816114c1565b82525050565b60006116f683836116db565b60208301905092915050565b6000602082019050919050565b600061171a826116af565b61172481856116ba565b935061172f836116cb565b8060005b8381101561176057815161174788826116ea565b975061175283611702565b925050600181019050611733565b5085935050505092915050565b60006020820190508181036000830152611787818461170f565b905092915050565b600080604083850312156117a6576117a561149c565b5b60006117b4858286016114ea565b92505060206117c5858286016114ea565b9150509250929050565b7f4e487b7100000000000000000000000000000000000000000000000000000000600052602260045260246000fd5b6000600282049050600182168061181657607f821691505b6020821081141561182a576118296117cf565b5b50919050565b7f61646472657373206e6f7420617574686f72697a656400000000000000000000600082015250565b60006118666016836113ec565b915061187182611830565b602082019050919050565b6000602082019050818103600083015261189581611859565b9050919050565b7f4e487b7100000000000000000000000000000000000000000000000000000000600052601160045260246000fd5b60006118d6826113ad565b91506118e1836113ad565b9250817fffffffffffffffffffffffffffffffffffffffffffffffffffffffffffffffff048311821515161561191a5761191961189c565b5b828202905092915050565b6000611930826113ad565b915061193b836113ad565b9250827fffffffffffffffffffffffffffffffffffffffffffffffffffffffffffffffff038211156119705761196f61189c565b5b828201905092915050565b7f596f752063616e206f6e6c792061646420757020746f2031302061646472657360008201527f7365730000000000000000000000000000000000000000000000000000000000602082015250565b60006119d76023836113ec565b91506119e28261197b565b604082019050919050565b60006020820190508181036000830152611a06816119ca565b9050919050565b7f6e6f74207a65726f206164647265737300000000000000000000000000000000600082015250565b6000611a436010836113ec565b9150611a4e82611a0d565b602082019050919050565b60006020820190508181036000830152611a7281611a36565b9050919050565b7f45524332303a2064656372656173656420616c6c6f77616e63652062656c6f7760008201527f207a65726f000000000000000000000000000000000000000000000000000000602082015250565b6000611ad56025836113ec565b9150611ae082611a79565b604082019050919050565b60006020820190508181036000830152611b0481611ac8565b9050919050565b7f56657374696e6720706572696f64206f76657200000000000000000000000000600082015250565b6000611b416013836113ec565b9150611b4c82611b0b565b602082019050919050565b60006020820190508181036000830152611b7081611b34565b9050919050565b6000611b82826113ad565b9150611b8d836113ad565b925082821015611ba057611b9f61189c565b5b828203905092915050565b7f546f6f20526563656e7400000000000000000000000000000000000000000000600082015250565b6000611be1600a836113ec565b9150611bec82611bab565b602082019050919050565b60006020820190508181036000830152611c1081611bd4565b9050919050565b7f4e487b7100000000000000000000000000000000000000000000000000000000600052603260045260246000fd5b6000611c51826113ad565b91507fffffffffffffffffffffffffffffffffffffffffffffffffffffffffffffffff821415611c8457611c8361189c565b5b600182019050919050565b7f45524332303a20617070726f76652066726f6d20746865207a65726f2061646460008201527f7265737300000000000000000000000000000000000000000000000000000000602082015250565b6000611ceb6024836113ec565b9150611cf682611c8f565b604082019050919050565b60006020820190508181036000830152611d1a81611cde565b9050919050565b7f45524332303a20617070726f766520746f20746865207a65726f20616464726560008201527f7373000000000000000000000000000000000000000000000000000000000000602082015250565b6000611d7d6022836113ec565b9150611d8882611d21565b604082019050919050565b60006020820190508181036000830152611dac81611d70565b9050919050565b7f45524332303a20696e73756666696369656e7420616c6c6f77616e6365000000600082015250565b6000611de9601d836113ec565b9150611df482611db3565b602082019050919050565b60006020820190508181036000830152611e1881611ddc565b9050919050565b7f45524332303a207472616e736665722066726f6d20746865207a65726f20616460008201527f6472657373000000000000000000000000000000000000000000000000000000602082015250565b6000611e7b6025836113ec565b9150611e8682611e1f565b604082019050919050565b60006020820190508181036000830152611eaa81611e6e565b9050919050565b7f45524332303a207472616e7366657220746f20746865207a65726f206164647260008201527f6573730000000000000000000000000000000000000000000000000000000000602082015250565b6000611f0d6023836113ec565b9150611f1882611eb1565b604082019050919050565b60006020820190508181036000830152611f3c81611f00565b9050919050565b7f45524332303a207472616e7366657220616d6f756e742065786365656473206260008201527f616c616e63650000000000000000000000000000000000000000000000000000602082015250565b6000611f9f6026836113ec565b9150611faa82611f43565b604082019050919050565b60006020820190508181036000830152611fce81611f92565b905091905056fea264697066735822122056e3d09f27165143cf2802c64c249cd7dcbe68f7bc0d9a5a40b30e6d8c60face64736f6c63430008090033",
  "linkReferences": {},
  "deployedLinkReferences": {}
}