{
    "_format": "hh-sol-artifact-1",
    "contractName": "Vesting",
    "sourceName": "contracts/Vesting.sol",
    "abi": [
        {
            "inputs": [
                {
                    "internalType": "uint256",
                    "name": "_initialSupply",
                    "type": "uint256"
                },
                {
                    "internalType": "uint256",
                    "name": "_vestingPeriod",
                    "type": "uint256"
                },
                {
                    "internalType": "uint256",
                    "name": "_amountToRelease",
                    "type": "uint256"
                },
                {
                    "internalType": "uint256",
                    "name": "_tokenReleaseInterval",
                    "type": "uint256"
                }
            ],
            "stateMutability": "nonpayable",
            "type": "constructor"
        },
        {
            "anonymous": false,
            "inputs": [
                {
                    "indexed": true,
                    "internalType": "address",
                    "name": "owner",
                    "type": "address"
                },
                {
                    "indexed": true,
                    "internalType": "address",
                    "name": "spender",
                    "type": "address"
                },
                {
                    "indexed": false,
                    "internalType": "uint256",
                    "name": "value",
                    "type": "uint256"
                }
            ],
            "name": "Approval",
            "type": "event"
        },
        {
            "anonymous": false,
            "inputs": [
                {
                    "indexed": true,
                    "internalType": "address",
                    "name": "from",
                    "type": "address"
                },
                {
                    "indexed": true,
                    "internalType": "address",
                    "name": "to",
                    "type": "address"
                },
                {
                    "indexed": false,
                    "internalType": "uint256",
                    "name": "value",
                    "type": "uint256"
                }
            ],
            "name": "Transfer",
            "type": "event"
        },
        {
            "inputs": [
                {
                    "internalType": "address",
                    "name": "_address",
                    "type": "address"
                }
            ],
            "name": "addDisperseAddress",
            "outputs": [],
            "stateMutability": "nonpayable",
            "type": "function"
        },
        {
            "inputs": [],
            "name": "admin",
            "outputs": [
                {
                    "internalType": "address",
                    "name": "",
                    "type": "address"
                }
            ],
            "stateMutability": "view",
            "type": "function"
        },
        {
            "inputs": [
                {
                    "internalType": "address",
                    "name": "owner",
                    "type": "address"
                },
                {
                    "internalType": "address",
                    "name": "spender",
                    "type": "address"
                }
            ],
            "name": "allowance",
            "outputs": [
                {
                    "internalType": "uint256",
                    "name": "",
                    "type": "uint256"
                }
            ],
            "stateMutability": "view",
            "type": "function"
        },
        {
            "inputs": [],
            "name": "amountToRelease",
            "outputs": [
                {
                    "internalType": "uint256",
                    "name": "",
                    "type": "uint256"
                }
            ],
            "stateMutability": "view",
            "type": "function"
        },
        {
            "inputs": [
                {
                    "internalType": "address",
                    "name": "spender",
                    "type": "address"
                },
                {
                    "internalType": "uint256",
                    "name": "amount",
                    "type": "uint256"
                }
            ],
            "name": "approve",
            "outputs": [
                {
                    "internalType": "bool",
                    "name": "",
                    "type": "bool"
                }
            ],
            "stateMutability": "nonpayable",
            "type": "function"
        },
        {
            "inputs": [
                {
                    "internalType": "address",
                    "name": "account",
                    "type": "address"
                }
            ],
            "name": "balanceOf",
            "outputs": [
                {
                    "internalType": "uint256",
                    "name": "",
                    "type": "uint256"
                }
            ],
            "stateMutability": "view",
            "type": "function"
        },
        {
            "inputs": [],
            "name": "decimals",
            "outputs": [
                {
                    "internalType": "uint8",
                    "name": "",
                    "type": "uint8"
                }
            ],
            "stateMutability": "view",
            "type": "function"
        },
        {
            "inputs": [
                {
                    "internalType": "address",
                    "name": "spender",
                    "type": "address"
                },
                {
                    "internalType": "uint256",
                    "name": "subtractedValue",
                    "type": "uint256"
                }
            ],
            "name": "decreaseAllowance",
            "outputs": [
                {
                    "internalType": "bool",
                    "name": "",
                    "type": "bool"
                }
            ],
            "stateMutability": "nonpayable",
            "type": "function"
        },
        {
            "inputs": [
                {
                    "internalType": "address",
                    "name": "spender",
                    "type": "address"
                },
                {
                    "internalType": "uint256",
                    "name": "addedValue",
                    "type": "uint256"
                }
            ],
            "name": "increaseAllowance",
            "outputs": [
                {
                    "internalType": "bool",
                    "name": "",
                    "type": "bool"
                }
            ],
            "stateMutability": "nonpayable",
            "type": "function"
        },
        {
            "inputs": [],
            "name": "lastReleaseTimeStamp",
            "outputs": [
                {
                    "internalType": "uint256",
                    "name": "",
                    "type": "uint256"
                }
            ],
            "stateMutability": "view",
            "type": "function"
        },
        {
            "inputs": [],
            "name": "name",
            "outputs": [
                {
                    "internalType": "string",
                    "name": "",
                    "type": "string"
                }
            ],
            "stateMutability": "view",
            "type": "function"
        },
        {
            "inputs": [],
            "name": "sendTokens",
            "outputs": [],
            "stateMutability": "nonpayable",
            "type": "function"
        },
        {
            "inputs": [
                {
                    "internalType": "address",
                    "name": "_address",
                    "type": "address"
                }
            ],
            "name": "setAdmin",
            "outputs": [],
            "stateMutability": "nonpayable",
            "type": "function"
        },
        {
            "inputs": [],
            "name": "symbol",
            "outputs": [
                {
                    "internalType": "string",
                    "name": "",
                    "type": "string"
                }
            ],
            "stateMutability": "view",
            "type": "function"
        },
        {
            "inputs": [],
            "name": "tokenDeployer",
            "outputs": [
                {
                    "internalType": "address",
                    "name": "",
                    "type": "address"
                }
            ],
            "stateMutability": "view",
            "type": "function"
        },
        {
            "inputs": [],
            "name": "tokenReleaseInterval",
            "outputs": [
                {
                    "internalType": "uint256",
                    "name": "",
                    "type": "uint256"
                }
            ],
            "stateMutability": "view",
            "type": "function"
        },
        {
            "inputs": [],
            "name": "totalSupply",
            "outputs": [
                {
                    "internalType": "uint256",
                    "name": "",
                    "type": "uint256"
                }
            ],
            "stateMutability": "view",
            "type": "function"
        },
        {
            "inputs": [
                {
                    "internalType": "address",
                    "name": "to",
                    "type": "address"
                },
                {
                    "internalType": "uint256",
                    "name": "amount",
                    "type": "uint256"
                }
            ],
            "name": "transfer",
            "outputs": [
                {
                    "internalType": "bool",
                    "name": "",
                    "type": "bool"
                }
            ],
            "stateMutability": "nonpayable",
            "type": "function"
        },
        {
            "inputs": [
                {
                    "internalType": "address",
                    "name": "from",
                    "type": "address"
                },
                {
                    "internalType": "address",
                    "name": "to",
                    "type": "address"
                },
                {
                    "internalType": "uint256",
                    "name": "amount",
                    "type": "uint256"
                }
            ],
            "name": "transferFrom",
            "outputs": [
                {
                    "internalType": "bool",
                    "name": "",
                    "type": "bool"
                }
            ],
            "stateMutability": "nonpayable",
            "type": "function"
        },
        {
            "inputs": [
                {
                    "internalType": "uint256",
                    "name": "_amountToRelease",
                    "type": "uint256"
                }
            ],
            "name": "updateAmount",
            "outputs": [],
            "stateMutability": "nonpayable",
            "type": "function"
        },
        {
            "inputs": [
                {
                    "internalType": "uint256",
                    "name": "_minutes",
                    "type": "uint256"
                }
            ],
            "name": "updateReleaseInterval",
            "outputs": [],
            "stateMutability": "nonpayable",
            "type": "function"
        },
        {
            "inputs": [],
            "name": "vestingPeriod",
            "outputs": [
                {
                    "internalType": "uint256",
                    "name": "",
                    "type": "uint256"
                }
            ],
            "stateMutability": "view",
            "type": "function"
        }
    ],
    "bytecode": "0x60806040523480156200001157600080fd5b50604051620025fe380380620025fe83398181016040528101906200003791906200042f565b6040518060400160405280600381526020017f58595a00000000000000000000000000000000000000000000000000000000008152506040518060400160405280600381526020017f58595a00000000000000000000000000000000000000000000000000000000008152508160039080519060200190620000bb9291906200033f565b508060049080519060200190620000d49291906200033f565b5050506200011330620000ec620001b360201b60201c565b600a620000fa919062000631565b8662000107919062000682565b620001bc60201b60201c565b33600660006101000a81548173ffffffffffffffffffffffffffffffffffffffff021916908373ffffffffffffffffffffffffffffffffffffffff160217905550620151808362000165919062000682565b42620001729190620006e3565b600781905550670de0b6b3a7640000826200018e919062000682565b600b81905550603c81620001a3919062000682565b6009819055505050505062000856565b60006012905090565b600073ffffffffffffffffffffffffffffffffffffffff168273ffffffffffffffffffffffffffffffffffffffff1614156200022f576040517f08c379a00000000000000000000000000000000000000000000000000000000081526004016200022690620007a1565b60405180910390fd5b62000243600083836200033560201b60201c565b8060026000828254620002579190620006e3565b92505081905550806000808473ffffffffffffffffffffffffffffffffffffffff1673ffffffffffffffffffffffffffffffffffffffff1681526020019081526020016000206000828254620002ae9190620006e3565b925050819055508173ffffffffffffffffffffffffffffffffffffffff16600073ffffffffffffffffffffffffffffffffffffffff167fddf252ad1be2c89b69c2b068fc378daa952ba7f163c4a11628f55a4df523b3ef83604051620003159190620007d4565b60405180910390a362000331600083836200033a60201b60201c565b5050565b505050565b505050565b8280546200034d9062000820565b90600052602060002090601f016020900481019282620003715760008555620003bd565b82601f106200038c57805160ff1916838001178555620003bd565b82800160010185558215620003bd579182015b82811115620003bc5782518255916020019190600101906200039f565b5b509050620003cc9190620003d0565b5090565b5b80821115620003eb576000816000905550600101620003d1565b5090565b600080fd5b6000819050919050565b6200040981620003f4565b81146200041557600080fd5b50565b6000815190506200042981620003fe565b92915050565b600080600080608085870312156200044c576200044b620003ef565b5b60006200045c8782880162000418565b94505060206200046f8782880162000418565b9350506040620004828782880162000418565b9250506060620004958782880162000418565b91505092959194509250565b7f4e487b7100000000000000000000000000000000000000000000000000000000600052601160045260246000fd5b60008160011c9050919050565b6000808291508390505b60018511156200052f57808604811115620005075762000506620004a1565b5b6001851615620005175780820291505b80810290506200052785620004d0565b9450620004e7565b94509492505050565b6000826200054a57600190506200061d565b816200055a57600090506200061d565b81600181146200057357600281146200057e57620005b4565b60019150506200061d565b60ff841115620005935762000592620004a1565b5b8360020a915084821115620005ad57620005ac620004a1565b5b506200061d565b5060208310610133831016604e8410600b8410161715620005ee5782820a905083811115620005e857620005e7620004a1565b5b6200061d565b620005fd8484846001620004dd565b92509050818404811115620006175762000616620004a1565b5b81810290505b9392505050565b600060ff82169050919050565b60006200063e82620003f4565b91506200064b8362000624565b92506200067a7fffffffffffffffffffffffffffffffffffffffffffffffffffffffffffffffff848462000538565b905092915050565b60006200068f82620003f4565b91506200069c83620003f4565b9250817fffffffffffffffffffffffffffffffffffffffffffffffffffffffffffffffff0483118215151615620006d857620006d7620004a1565b5b828202905092915050565b6000620006f082620003f4565b9150620006fd83620003f4565b9250827fffffffffffffffffffffffffffffffffffffffffffffffffffffffffffffffff03821115620007355762000734620004a1565b5b828201905092915050565b600082825260208201905092915050565b7f45524332303a206d696e7420746f20746865207a65726f206164647265737300600082015250565b600062000789601f8362000740565b9150620007968262000751565b602082019050919050565b60006020820190508181036000830152620007bc816200077a565b9050919050565b620007ce81620003f4565b82525050565b6000602082019050620007eb6000830184620007c3565b92915050565b7f4e487b7100000000000000000000000000000000000000000000000000000000600052602260045260246000fd5b600060028204905060018216806200083957607f821691505b6020821081141562000850576200084f620007f1565b5b50919050565b611d9880620008666000396000f3fe608060405234801561001057600080fd5b50600436106101425760003560e01c8063704b6c02116100b85780639941e7911161007c5780639941e79114610367578063a457c2d714610385578063a9059cbb146103b5578063dd62ed3e146103e5578063e47112bd14610415578063f851a4401461041f57610142565b8063704b6c02146102c357806370a08231146102df5780637313ee5a1461030f5780637a9ac6a31461032d57806395d89b411461034957610142565b80632a2dae0a1161010a5780632a2dae0a14610201578063313ce5671461021f57806334d6093d1461023d57806339509351146102595780635410f9e1146102895780636ea92314146102a557610142565b806302f88e071461014757806306fdde0314610165578063095ea7b31461018357806318160ddd146101b357806323b872dd146101d1575b600080fd5b61014f61043d565b60405161015c919061129f565b60405180910390f35b61016d610443565b60405161017a9190611353565b60405180910390f35b61019d60048036038101906101989190611404565b6104d5565b6040516101aa919061145f565b60405180910390f35b6101bb6104f8565b6040516101c8919061129f565b60405180910390f35b6101eb60048036038101906101e6919061147a565b610502565b6040516101f8919061145f565b60405180910390f35b610209610531565b60405161021691906114dc565b60405180910390f35b610227610557565b6040516102349190611513565b60405180910390f35b6102576004803603810190610252919061152e565b610560565b005b610273600480360381019061026e9190611404565b610665565b604051610280919061145f565b60405180910390f35b6102a3600480360381019061029e919061155b565b61069c565b005b6102ad610832565b6040516102ba919061129f565b60405180910390f35b6102dd60048036038101906102d8919061155b565b610838565b005b6102f960048036038101906102f4919061155b565b610964565b604051610306919061129f565b60405180910390f35b6103176109ac565b604051610324919061129f565b60405180910390f35b6103476004803603810190610342919061152e565b6109b2565b005b610351610ab0565b60405161035e9190611353565b60405180910390f35b61036f610b42565b60405161037c919061129f565b60405180910390f35b61039f600480360381019061039a9190611404565b610b48565b6040516103ac919061145f565b60405180910390f35b6103cf60048036038101906103ca9190611404565b610bbf565b6040516103dc919061145f565b60405180910390f35b6103ff60048036038101906103fa9190611588565b610be2565b60405161040c919061129f565b60405180910390f35b61041d610c69565b005b610427610d76565b60405161043491906114dc565b60405180910390f35b600a5481565b606060038054610452906115f7565b80601f016020809104026020016040519081016040528092919081815260200182805461047e906115f7565b80156104cb5780601f106104a0576101008083540402835291602001916104cb565b820191906000526020600020905b8154815290600101906020018083116104ae57829003601f168201915b5050505050905090565b6000806104e0610d9c565b90506104ed818585610da4565b600191505092915050565b6000600254905090565b60008061050d610d9c565b905061051a858285610f6f565b610525858585610ffb565b60019150509392505050565b600660009054906101000a900473ffffffffffffffffffffffffffffffffffffffff1681565b60006012905090565b600560009054906101000a900473ffffffffffffffffffffffffffffffffffffffff1673ffffffffffffffffffffffffffffffffffffffff163373ffffffffffffffffffffffffffffffffffffffff1614806106095750600660009054906101000a900473ffffffffffffffffffffffffffffffffffffffff1673ffffffffffffffffffffffffffffffffffffffff163373ffffffffffffffffffffffffffffffffffffffff16145b610648576040517f08c379a000000000000000000000000000000000000000000000000000000000815260040161063f90611675565b60405180910390fd5b670de0b6b3a76400008161065c91906116c4565b600b8190555050565b600080610670610d9c565b90506106918185856106828589610be2565b61068c919061171e565b610da4565b600191505092915050565b600560009054906101000a900473ffffffffffffffffffffffffffffffffffffffff1673ffffffffffffffffffffffffffffffffffffffff163373ffffffffffffffffffffffffffffffffffffffff1614806107455750600660009054906101000a900473ffffffffffffffffffffffffffffffffffffffff1673ffffffffffffffffffffffffffffffffffffffff163373ffffffffffffffffffffffffffffffffffffffff16145b610784576040517f08c379a000000000000000000000000000000000000000000000000000000000815260040161077b90611675565b60405180910390fd5b600a600880549050106107cc576040517f08c379a00000000000000000000000000000000000000000000000000000000081526004016107c3906117e6565b60405180910390fd5b6008819080600181540180825580915050600190039060005260206000200160009091909190916101000a81548173ffffffffffffffffffffffffffffffffffffffff021916908373ffffffffffffffffffffffffffffffffffffffff16021790555050565b600b5481565b600560009054906101000a900473ffffffffffffffffffffffffffffffffffffffff1673ffffffffffffffffffffffffffffffffffffffff163373ffffffffffffffffffffffffffffffffffffffff1614806108e15750600660009054906101000a900473ffffffffffffffffffffffffffffffffffffffff1673ffffffffffffffffffffffffffffffffffffffff163373ffffffffffffffffffffffffffffffffffffffff16145b610920576040517f08c379a000000000000000000000000000000000000000000000000000000000815260040161091790611675565b60405180910390fd5b80600560006101000a81548173ffffffffffffffffffffffffffffffffffffffff021916908373ffffffffffffffffffffffffffffffffffffffff16021790555050565b60008060008373ffffffffffffffffffffffffffffffffffffffff1673ffffffffffffffffffffffffffffffffffffffff168152602001908152602001600020549050919050565b60075481565b600560009054906101000a900473ffffffffffffffffffffffffffffffffffffffff1673ffffffffffffffffffffffffffffffffffffffff163373ffffffffffffffffffffffffffffffffffffffff161480610a5b5750600660009054906101000a900473ffffffffffffffffffffffffffffffffffffffff1673ffffffffffffffffffffffffffffffffffffffff163373ffffffffffffffffffffffffffffffffffffffff16145b610a9a576040517f08c379a0000000000000000000000000000000000000000000000000000000008152600401610a9190611675565b60405180910390fd5b603c81610aa791906116c4565b60098190555050565b606060048054610abf906115f7565b80601f0160208091040260200160405190810160405280929190818152602001828054610aeb906115f7565b8015610b385780601f10610b0d57610100808354040283529160200191610b38565b820191906000526020600020905b815481529060010190602001808311610b1b57829003601f168201915b5050505050905090565b60095481565b600080610b53610d9c565b90506000610b618286610be2565b905083811015610ba6576040517f08c379a0000000000000000000000000000000000000000000000000000000008152600401610b9d90611878565b60405180910390fd5b610bb38286868403610da4565b60019250505092915050565b600080610bca610d9c565b9050610bd7818585610ffb565b600191505092915050565b6000600160008473ffffffffffffffffffffffffffffffffffffffff1673ffffffffffffffffffffffffffffffffffffffff16815260200190815260200160002060008373ffffffffffffffffffffffffffffffffffffffff1673ffffffffffffffffffffffffffffffffffffffff16815260200190815260200160002054905092915050565b6007544210610cad576040517f08c379a0000000000000000000000000000000000000000000000000000000008152600401610ca4906118e4565b60405180910390fd5b600954600a5442610cbe9190611904565b11610cfe576040517f08c379a0000000000000000000000000000000000000000000000000000000008152600401610cf590611984565b60405180910390fd5b60005b600880549050811015610d6c57610d5860088281548110610d2557610d246119a4565b5b9060005260206000200160009054906101000a900473ffffffffffffffffffffffffffffffffffffffff16600b54610bbf565b508080610d64906119d3565b915050610d01565b5042600a81905550565b600560009054906101000a900473ffffffffffffffffffffffffffffffffffffffff1681565b600033905090565b600073ffffffffffffffffffffffffffffffffffffffff168373ffffffffffffffffffffffffffffffffffffffff161415610e14576040517f08c379a0000000000000000000000000000000000000000000000000000000008152600401610e0b90611a8e565b60405180910390fd5b600073ffffffffffffffffffffffffffffffffffffffff168273ffffffffffffffffffffffffffffffffffffffff161415610e84576040517f08c379a0000000000000000000000000000000000000000000000000000000008152600401610e7b90611b20565b60405180910390fd5b80600160008573ffffffffffffffffffffffffffffffffffffffff1673ffffffffffffffffffffffffffffffffffffffff16815260200190815260200160002060008473ffffffffffffffffffffffffffffffffffffffff1673ffffffffffffffffffffffffffffffffffffffff168152602001908152602001600020819055508173ffffffffffffffffffffffffffffffffffffffff168373ffffffffffffffffffffffffffffffffffffffff167f8c5be1e5ebec7d5bd14f71427d1e84f3dd0314c0f7b2291e5b200ac8c7c3b92583604051610f62919061129f565b60405180910390a3505050565b6000610f7b8484610be2565b90507fffffffffffffffffffffffffffffffffffffffffffffffffffffffffffffffff8114610ff55781811015610fe7576040517f08c379a0000000000000000000000000000000000000000000000000000000008152600401610fde90611b8c565b60405180910390fd5b610ff48484848403610da4565b5b50505050565b600073ffffffffffffffffffffffffffffffffffffffff168373ffffffffffffffffffffffffffffffffffffffff16141561106b576040517f08c379a000000000000000000000000000000000000000000000000000000000815260040161106290611c1e565b60405180910390fd5b600073ffffffffffffffffffffffffffffffffffffffff168273ffffffffffffffffffffffffffffffffffffffff1614156110db576040517f08c379a00000000000000000000000000000000000000000000000000000000081526004016110d290611cb0565b60405180910390fd5b6110e683838361127c565b60008060008573ffffffffffffffffffffffffffffffffffffffff1673ffffffffffffffffffffffffffffffffffffffff1681526020019081526020016000205490508181101561116c576040517f08c379a000000000000000000000000000000000000000000000000000000000815260040161116390611d42565b60405180910390fd5b8181036000808673ffffffffffffffffffffffffffffffffffffffff1673ffffffffffffffffffffffffffffffffffffffff16815260200190815260200160002081905550816000808573ffffffffffffffffffffffffffffffffffffffff1673ffffffffffffffffffffffffffffffffffffffff16815260200190815260200160002060008282546111ff919061171e565b925050819055508273ffffffffffffffffffffffffffffffffffffffff168473ffffffffffffffffffffffffffffffffffffffff167fddf252ad1be2c89b69c2b068fc378daa952ba7f163c4a11628f55a4df523b3ef84604051611263919061129f565b60405180910390a3611276848484611281565b50505050565b505050565b505050565b6000819050919050565b61129981611286565b82525050565b60006020820190506112b46000830184611290565b92915050565b600081519050919050565b600082825260208201905092915050565b60005b838110156112f45780820151818401526020810190506112d9565b83811115611303576000848401525b50505050565b6000601f19601f8301169050919050565b6000611325826112ba565b61132f81856112c5565b935061133f8185602086016112d6565b61134881611309565b840191505092915050565b6000602082019050818103600083015261136d818461131a565b905092915050565b600080fd5b600073ffffffffffffffffffffffffffffffffffffffff82169050919050565b60006113a58261137a565b9050919050565b6113b58161139a565b81146113c057600080fd5b50565b6000813590506113d2816113ac565b92915050565b6113e181611286565b81146113ec57600080fd5b50565b6000813590506113fe816113d8565b92915050565b6000806040838503121561141b5761141a611375565b5b6000611429858286016113c3565b925050602061143a858286016113ef565b9150509250929050565b60008115159050919050565b61145981611444565b82525050565b60006020820190506114746000830184611450565b92915050565b60008060006060848603121561149357611492611375565b5b60006114a1868287016113c3565b93505060206114b2868287016113c3565b92505060406114c3868287016113ef565b9150509250925092565b6114d68161139a565b82525050565b60006020820190506114f160008301846114cd565b92915050565b600060ff82169050919050565b61150d816114f7565b82525050565b60006020820190506115286000830184611504565b92915050565b60006020828403121561154457611543611375565b5b6000611552848285016113ef565b91505092915050565b60006020828403121561157157611570611375565b5b600061157f848285016113c3565b91505092915050565b6000806040838503121561159f5761159e611375565b5b60006115ad858286016113c3565b92505060206115be858286016113c3565b9150509250929050565b7f4e487b7100000000000000000000000000000000000000000000000000000000600052602260045260246000fd5b6000600282049050600182168061160f57607f821691505b60208210811415611623576116226115c8565b5b50919050565b7f61646472657373206e6f7420617574686f72697a656400000000000000000000600082015250565b600061165f6016836112c5565b915061166a82611629565b602082019050919050565b6000602082019050818103600083015261168e81611652565b9050919050565b7f4e487b7100000000000000000000000000000000000000000000000000000000600052601160045260246000fd5b60006116cf82611286565b91506116da83611286565b9250817fffffffffffffffffffffffffffffffffffffffffffffffffffffffffffffffff048311821515161561171357611712611695565b5b828202905092915050565b600061172982611286565b915061173483611286565b9250827fffffffffffffffffffffffffffffffffffffffffffffffffffffffffffffffff0382111561176957611768611695565b5b828201905092915050565b7f596f752063616e206f6e6c792061646420757020746f2031302061646472657360008201527f7365730000000000000000000000000000000000000000000000000000000000602082015250565b60006117d06023836112c5565b91506117db82611774565b604082019050919050565b600060208201905081810360008301526117ff816117c3565b9050919050565b7f45524332303a2064656372656173656420616c6c6f77616e63652062656c6f7760008201527f207a65726f000000000000000000000000000000000000000000000000000000602082015250565b60006118626025836112c5565b915061186d82611806565b604082019050919050565b6000602082019050818103600083015261189181611855565b9050919050565b7f56657374696e6720706572696f64206f76657200000000000000000000000000600082015250565b60006118ce6013836112c5565b91506118d982611898565b602082019050919050565b600060208201905081810360008301526118fd816118c1565b9050919050565b600061190f82611286565b915061191a83611286565b92508282101561192d5761192c611695565b5b828203905092915050565b7f546f6f20526563656e7400000000000000000000000000000000000000000000600082015250565b600061196e600a836112c5565b915061197982611938565b602082019050919050565b6000602082019050818103600083015261199d81611961565b9050919050565b7f4e487b7100000000000000000000000000000000000000000000000000000000600052603260045260246000fd5b60006119de82611286565b91507fffffffffffffffffffffffffffffffffffffffffffffffffffffffffffffffff821415611a1157611a10611695565b5b600182019050919050565b7f45524332303a20617070726f76652066726f6d20746865207a65726f2061646460008201527f7265737300000000000000000000000000000000000000000000000000000000602082015250565b6000611a786024836112c5565b9150611a8382611a1c565b604082019050919050565b60006020820190508181036000830152611aa781611a6b565b9050919050565b7f45524332303a20617070726f766520746f20746865207a65726f20616464726560008201527f7373000000000000000000000000000000000000000000000000000000000000602082015250565b6000611b0a6022836112c5565b9150611b1582611aae565b604082019050919050565b60006020820190508181036000830152611b3981611afd565b9050919050565b7f45524332303a20696e73756666696369656e7420616c6c6f77616e6365000000600082015250565b6000611b76601d836112c5565b9150611b8182611b40565b602082019050919050565b60006020820190508181036000830152611ba581611b69565b9050919050565b7f45524332303a207472616e736665722066726f6d20746865207a65726f20616460008201527f6472657373000000000000000000000000000000000000000000000000000000602082015250565b6000611c086025836112c5565b9150611c1382611bac565b604082019050919050565b60006020820190508181036000830152611c3781611bfb565b9050919050565b7f45524332303a207472616e7366657220746f20746865207a65726f206164647260008201527f6573730000000000000000000000000000000000000000000000000000000000602082015250565b6000611c9a6023836112c5565b9150611ca582611c3e565b604082019050919050565b60006020820190508181036000830152611cc981611c8d565b9050919050565b7f45524332303a207472616e7366657220616d6f756e742065786365656473206260008201527f616c616e63650000000000000000000000000000000000000000000000000000602082015250565b6000611d2c6026836112c5565b9150611d3782611cd0565b604082019050919050565b60006020820190508181036000830152611d5b81611d1f565b905091905056fea26469706673582212203d436aeb4761765fa9087e641d80bcc936ca6b5dc491277506fc6c4b90a782f264736f6c63430008090033",
    "linkReferences": {},
    "deployedLinkReferences": {}
}